:020000040800F2
:10000000D80600200101000825010008270100088A
:10001000290100082B0100082D0100080000000044
:100020000000000000000000000000002F01000898
:10003000310100080000000033010008350100080C
:1000400037010008370100083701000837010008B0
:1000500037010008370100083701000837010008A0
:100060003701000837010008370100083701000890
:100070003701000837010008370100083701000880
:100080003701000837010008370100083701000870
:100090003701000837010008370100083701000860
:1000A0003701000837010008370100083701000850
:1000B0003701000837010008370100083701000840
:1000C0003701000837010008370100083701000830
:1000D0003701000837010008370100083701000820
:1000E000370100083701000837010008DFF80CD09D
:1000F00000F02CF800480047AD010008D8060020A9
:100100000D488047DFF83400016841F4E0210160C8
:10011000BFF34F8FDFF82800DFF8281001600A488E
:1001200000477047FEE7FEE7FEE7FEE7FEE7FEE773
:10013000FEE7FEE7FEE7FEE72301000824ED00E00E
:100140000CED00E00003FA05ED000008064C074D39
:1001500006E0E06840F0010394E807009847103497
:10016000AC42F6D3FFF7C6FF700200089002000809
:1001700040F2010CC2F2000C604740F2550CC2F292
:10018000000C604740F2A90CC2F2000C604702E08C
:1001900008C8121F08C1002AFAD170477047002012
:1001A00001E001C1121F002AFBD17047042000F0BA
:1001B00029F811490860042000F024F80F4908606C
:1001C000042000F01FF80E49086017210B48006852
:1001D000FFF7CEFF172108480068FFF7CEFF074A58
:1001E00012681168044A12681068054A1268FFF71D
:1001F000C9FF00BFFEE70000C0000020C4000020CF
:10020000C8000020F0B50B30154D20F00701002488
:10021000144A0FE003688B420BD38B4205D95E1A58
:1002200043184768C3E9006700E04368136002C0F1
:1002300004E0021D10680028ECD12046002802D1FD
:10024000286808B10020F0BD064A07481060074A38
:10025000121A22F00702C0E9002401202860D7E723
:10026000D0000020CC000020DC000020D8020020BC
:100270001004000800000020D40000008E010008D7
:10028000E4040008D4000020040600009E010008D9
:100290006E06BE0B46048209A1092A04CA0B820617
:1002A0004A06EC0B2F047109CE090204D00BA306F9
:1002B0001A06080C3B044609F909F703B30BD206EA
:1002C000FB05000C64041909080A1104840BF506E7
:1002D000FF05D90B92040609F3093F045E0BF606ED
:1002E0002206AA0BAA041709C6096704580BD506EB
:1002F00052068F0B9D0442099B097204750BA606DA
:100300007106970B74046E098C095804A40B8406BB
:10031000FF7F627F8A7D7D7A4276E3706E6AF26249
:10032000825A34511D47573CFC302825F9188C0C53
:10033000000074F307E7D8DA04CFA9C3E3B8CCAE62
:100340007EA50E9D92951D8FBE89838576829E80A7
:1003500000809E8076828385BE891D8F92950E9D3A
:100360007EA5CCAEE3B8A9C304CFD8DA07E774F30F
:1003700000008C0CF9182825FC30573C1D473451DF
:10038000825AF2626E6AE37042767D7A8A7D627F7B
:1003900000008C0CF9182825FC30573C1D473451BF
:1003A000825AF2626E6AE37042767D7A8A7D627F5B
:1003B000FF7F627F8A7D7D7A4276E3706E6AF262A9
:1003C000825A34511D47573CFC302825F9188C0CB3
:1003D000000074F307E7D8DA04CFA9C3E3B8CCAEC2
:1003E0007EA50E9D92951D8FBE89838576829E8007
:1003F00000809E8076828385BE891D8F92950E9D9A
:100400007EA5CCAEE3B8A9C304CFD8DA07E774F36E
:1004100000B501B400F004F801BCC0F800C000BD94
:1004200010B420B440B480B40C480D4A4FF000031F
:100430004FF0000C01FB03F606F03F0632F91640C0
:1004400030F91350C4FB057CBC4603F10103402B7B
:10045000F0D180BC40BC20BC10BC704790020008AA
:100460009003000800B501B400F004F801BCC0F826
:1004700000C000BD10B420B440B480B40C480D4A94
:100480004FF000034FF0000C01FB03F606F03F06AF
:1004900032F9164030F91350C4FB057CBC4603F119
:1004A0000103402BF0D180BC40BC20BC10BC704785
:1004B000900200081003000800B54FF0000380FB15
:1004C00000C381FB01C003EB0001116000BD00000F
:1004D000000000000000000000000000000000001C
:0404E0000000000018
:04000005080000ED02
:00000001FF
